{
  "_format": "hh-sol-artifact-1",
  "contractName": "NFT",
  "sourceName": "contracts/Token.sol",
  "abi": [
    {
      "inputs": [
        {
          "internalType": "string",
          "name": "name",
          "type": "string"
        },
        {
          "internalType": "string",
          "name": "symbol",
          "type": "string"
        },
        {
          "internalType": "address",
          "name": "initialOwner",
          "type": "address"
        }
      ],
      "stateMutability": "nonpayable",
      "type": "constructor"
    },
    {
      "inputs": [
        {
          "internalType": "address",
          "name": "sender",
          "type": "address"
        },
        {
          "internalType": "uint256",
          "name": "tokenId",
          "type": "uint256"
        },
        {
          "internalType": "address",
          "name": "owner",
          "type": "address"
        }
      ],
      "name": "ERC721IncorrectOwner",
      "type": "error"
    },
    {
      "inputs": [
        {
          "internalType": "address",
          "name": "operator",
          "type": "address"
        },
        {
          "internalType": "uint256",
          "name": "tokenId",
          "type": "uint256"
        }
      ],
      "name": "ERC721InsufficientApproval",
      "type": "error"
    },
    {
      "inputs": [
        {
          "internalType": "address",
          "name": "approver",
          "type": "address"
        }
      ],
      "name": "ERC721InvalidApprover",
      "type": "error"
    },
    {
      "inputs": [
        {
          "internalType": "address",
          "name": "operator",
          "type": "address"
        }
      ],
      "name": "ERC721InvalidOperator",
      "type": "error"
    },
    {
      "inputs": [
        {
          "internalType": "address",
          "name": "owner",
          "type": "address"
        }
      ],
      "name": "ERC721InvalidOwner",
      "type": "error"
    },
    {
      "inputs": [
        {
          "internalType": "address",
          "name": "receiver",
          "type": "address"
        }
      ],
      "name": "ERC721InvalidReceiver",
      "type": "error"
    },
    {
      "inputs": [
        {
          "internalType": "address",
          "name": "sender",
          "type": "address"
        }
      ],
      "name": "ERC721InvalidSender",
      "type": "error"
    },
    {
      "inputs": [
        {
          "internalType": "uint256",
          "name": "tokenId",
          "type": "uint256"
        }
      ],
      "name": "ERC721NonexistentToken",
      "type": "error"
    },
    {
      "inputs": [
        {
          "internalType": "address",
          "name": "owner",
          "type": "address"
        }
      ],
      "name": "OwnableInvalidOwner",
      "type": "error"
    },
    {
      "inputs": [
        {
          "internalType": "address",
          "name": "account",
          "type": "address"
        }
      ],
      "name": "OwnableUnauthorizedAccount",
      "type": "error"
    },
    {
      "anonymous": false,
      "inputs": [
        {
          "indexed": true,
          "internalType": "address",
          "name": "owner",
          "type": "address"
        },
        {
          "indexed": true,
          "internalType": "address",
          "name": "approved",
          "type": "address"
        },
        {
          "indexed": true,
          "internalType": "uint256",
          "name": "tokenId",
          "type": "uint256"
        }
      ],
      "name": "Approval",
      "type": "event"
    },
    {
      "anonymous": false,
      "inputs": [
        {
          "indexed": true,
          "internalType": "address",
          "name": "owner",
          "type": "address"
        },
        {
          "indexed": true,
          "internalType": "address",
          "name": "operator",
          "type": "address"
        },
        {
          "indexed": false,
          "internalType": "bool",
          "name": "approved",
          "type": "bool"
        }
      ],
      "name": "ApprovalForAll",
      "type": "event"
    },
    {
      "anonymous": false,
      "inputs": [
        {
          "indexed": false,
          "internalType": "uint256",
          "name": "orderId",
          "type": "uint256"
        },
        {
          "indexed": false,
          "internalType": "uint256",
          "name": "tokenId",
          "type": "uint256"
        },
        {
          "indexed": false,
          "internalType": "address",
          "name": "newAuthorized",
          "type": "address"
        }
      ],
      "name": "AuthorizationTransferred",
      "type": "event"
    },
    {
      "anonymous": false,
      "inputs": [
        {
          "indexed": true,
          "internalType": "address",
          "name": "previousOwner",
          "type": "address"
        },
        {
          "indexed": true,
          "internalType": "address",
          "name": "newOwner",
          "type": "address"
        }
      ],
      "name": "OwnershipTransferred",
      "type": "event"
    },
    {
      "anonymous": false,
      "inputs": [
        {
          "indexed": false,
          "internalType": "uint256",
          "name": "tokenId",
          "type": "uint256"
        }
      ],
      "name": "TokenBurned",
      "type": "event"
    },
    {
      "anonymous": false,
      "inputs": [
        {
          "indexed": true,
          "internalType": "address",
          "name": "from",
          "type": "address"
        },
        {
          "indexed": true,
          "internalType": "address",
          "name": "to",
          "type": "address"
        },
        {
          "indexed": true,
          "internalType": "uint256",
          "name": "tokenId",
          "type": "uint256"
        }
      ],
      "name": "Transfer",
      "type": "event"
    },
    {
      "inputs": [
        {
          "internalType": "address",
          "name": "to",
          "type": "address"
        },
        {
          "internalType": "uint256",
          "name": "tokenId",
          "type": "uint256"
        }
      ],
      "name": "approve",
      "outputs": [],
      "stateMutability": "nonpayable",
      "type": "function"
    },
    {
      "inputs": [
        {
          "internalType": "address",
          "name": "owner",
          "type": "address"
        }
      ],
      "name": "balanceOf",
      "outputs": [
        {
          "internalType": "uint256",
          "name": "",
          "type": "uint256"
        }
      ],
      "stateMutability": "view",
      "type": "function"
    },
    {
      "inputs": [
        {
          "internalType": "uint256",
          "name": "tokenId",
          "type": "uint256"
        }
      ],
      "name": "burnToken",
      "outputs": [],
      "stateMutability": "nonpayable",
      "type": "function"
    },
    {
      "inputs": [
        {
          "internalType": "uint256",
          "name": "tokenId",
          "type": "uint256"
        }
      ],
      "name": "getApproved",
      "outputs": [
        {
          "internalType": "address",
          "name": "",
          "type": "address"
        }
      ],
      "stateMutability": "view",
      "type": "function"
    },
    {
      "inputs": [
        {
          "internalType": "uint256",
          "name": "tokenId",
          "type": "uint256"
        }
      ],
      "name": "getAuthorized",
      "outputs": [
        {
          "internalType": "address",
          "name": "",
          "type": "address"
        }
      ],
      "stateMutability": "view",
      "type": "function"
    },
    {
      "inputs": [
        {
          "internalType": "address",
          "name": "owner",
          "type": "address"
        },
        {
          "internalType": "address",
          "name": "operator",
          "type": "address"
        }
      ],
      "name": "isApprovedForAll",
      "outputs": [
        {
          "internalType": "bool",
          "name": "",
          "type": "bool"
        }
      ],
      "stateMutability": "view",
      "type": "function"
    },
    {
      "inputs": [
        {
          "internalType": "address",
          "name": "to",
          "type": "address"
        },
        {
          "internalType": "uint256",
          "name": "tokenId",
          "type": "uint256"
        },
        {
          "internalType": "uint256",
          "name": "orderId",
          "type": "uint256"
        },
        {
          "internalType": "string",
          "name": "metadataUrl",
          "type": "string"
        }
      ],
      "name": "mint",
      "outputs": [],
      "stateMutability": "nonpayable",
      "type": "function"
    },
    {
      "inputs": [],
      "name": "name",
      "outputs": [
        {
          "internalType": "string",
          "name": "",
          "type": "string"
        }
      ],
      "stateMutability": "view",
      "type": "function"
    },
    {
      "inputs": [],
      "name": "owner",
      "outputs": [
        {
          "internalType": "address",
          "name": "",
          "type": "address"
        }
      ],
      "stateMutability": "view",
      "type": "function"
    },
    {
      "inputs": [
        {
          "internalType": "uint256",
          "name": "tokenId",
          "type": "uint256"
        }
      ],
      "name": "ownerOf",
      "outputs": [
        {
          "internalType": "address",
          "name": "",
          "type": "address"
        }
      ],
      "stateMutability": "view",
      "type": "function"
    },
    {
      "inputs": [],
      "name": "renounceOwnership",
      "outputs": [],
      "stateMutability": "nonpayable",
      "type": "function"
    },
    {
      "inputs": [
        {
          "internalType": "address",
          "name": "from",
          "type": "address"
        },
        {
          "internalType": "address",
          "name": "to",
          "type": "address"
        },
        {
          "internalType": "uint256",
          "name": "tokenId",
          "type": "uint256"
        }
      ],
      "name": "safeTransferFrom",
      "outputs": [],
      "stateMutability": "nonpayable",
      "type": "function"
    },
    {
      "inputs": [
        {
          "internalType": "address",
          "name": "from",
          "type": "address"
        },
        {
          "internalType": "address",
          "name": "to",
          "type": "address"
        },
        {
          "internalType": "uint256",
          "name": "tokenId",
          "type": "uint256"
        },
        {
          "internalType": "bytes",
          "name": "data",
          "type": "bytes"
        }
      ],
      "name": "safeTransferFrom",
      "outputs": [],
      "stateMutability": "nonpayable",
      "type": "function"
    },
    {
      "inputs": [
        {
          "internalType": "address",
          "name": "operator",
          "type": "address"
        },
        {
          "internalType": "bool",
          "name": "approved",
          "type": "bool"
        }
      ],
      "name": "setApprovalForAll",
      "outputs": [],
      "stateMutability": "nonpayable",
      "type": "function"
    },
    {
      "inputs": [
        {
          "internalType": "bytes4",
          "name": "interfaceId",
          "type": "bytes4"
        }
      ],
      "name": "supportsInterface",
      "outputs": [
        {
          "internalType": "bool",
          "name": "",
          "type": "bool"
        }
      ],
      "stateMutability": "view",
      "type": "function"
    },
    {
      "inputs": [],
      "name": "symbol",
      "outputs": [
        {
          "internalType": "string",
          "name": "",
          "type": "string"
        }
      ],
      "stateMutability": "view",
      "type": "function"
    },
    {
      "inputs": [
        {
          "internalType": "uint256",
          "name": "tokenId",
          "type": "uint256"
        }
      ],
      "name": "tokenURI",
      "outputs": [
        {
          "internalType": "string",
          "name": "",
          "type": "string"
        }
      ],
      "stateMutability": "view",
      "type": "function"
    },
    {
      "inputs": [
        {
          "internalType": "uint256",
          "name": "tokenId",
          "type": "uint256"
        },
        {
          "internalType": "address",
          "name": "newAuthorized",
          "type": "address"
        }
      ],
      "name": "transferAuthorization",
      "outputs": [],
      "stateMutability": "nonpayable",
      "type": "function"
    },
    {
      "inputs": [
        {
          "internalType": "address",
          "name": "from",
          "type": "address"
        },
        {
          "internalType": "address",
          "name": "to",
          "type": "address"
        },
        {
          "internalType": "uint256",
          "name": "tokenId",
          "type": "uint256"
        }
      ],
      "name": "transferFrom",
      "outputs": [],
      "stateMutability": "nonpayable",
      "type": "function"
    },
    {
      "inputs": [
        {
          "internalType": "address",
          "name": "newOwner",
          "type": "address"
        }
      ],
      "name": "transferOwnership",
      "outputs": [],
      "stateMutability": "nonpayable",
      "type": "function"
    }
  ],
  "bytecode": "0x608060405234801561001057600080fd5b50604051612fb8380380612fb88339818101604052810190610032919061037a565b80838381600090816100449190610626565b5080600190816100549190610626565b505050600073ffffffffffffffffffffffffffffffffffffffff168173ffffffffffffffffffffffffffffffffffffffff16036100c95760006040517f1e4fbdf70000000000000000000000000000000000000000000000000000000081526004016100c09190610707565b60405180910390fd5b6100d8816100e160201b60201c565b50505050610722565b6000600660009054906101000a900473ffffffffffffffffffffffffffffffffffffffff16905081600660006101000a81548173ffffffffffffffffffffffffffffffffffffffff021916908373ffffffffffffffffffffffffffffffffffffffff1602179055508173ffffffffffffffffffffffffffffffffffffffff168173ffffffffffffffffffffffffffffffffffffffff167f8be0079c531659141344cd1fd0a4f28419497f9722a3daafe3b4186f6b6457e060405160405180910390a35050565b6000604051905090565b600080fd5b600080fd5b600080fd5b600080fd5b6000601f19601f8301169050919050565b7f4e487b7100000000000000000000000000000000000000000000000000000000600052604160045260246000fd5b61020e826101c5565b810181811067ffffffffffffffff8211171561022d5761022c6101d6565b5b80604052505050565b60006102406101a7565b905061024c8282610205565b919050565b600067ffffffffffffffff82111561026c5761026b6101d6565b5b610275826101c5565b9050602081019050919050565b60005b838110156102a0578082015181840152602081019050610285565b60008484015250505050565b60006102bf6102ba84610251565b610236565b9050828152602081018484840111156102db576102da6101c0565b5b6102e6848285610282565b509392505050565b600082601f830112610303576103026101bb565b5b81516103138482602086016102ac565b91505092915050565b600073ffffffffffffffffffffffffffffffffffffffff82169050919050565b60006103478261031c565b9050919050565b6103578161033c565b811461036257600080fd5b50565b6000815190506103748161034e565b92915050565b600080600060608486031215610393576103926101b1565b5b600084015167ffffffffffffffff8111156103b1576103b06101b6565b5b6103bd868287016102ee565b935050602084015167ffffffffffffffff8111156103de576103dd6101b6565b5b6103ea868287016102ee565b92505060406103fb86828701610365565b9150509250925092565b600081519050919050565b7f4e487b7100000000000000000000000000000000000000000000000000000000600052602260045260246000fd5b6000600282049050600182168061045757607f821691505b60208210810361046a57610469610410565b5b50919050565b60008190508160005260206000209050919050565b60006020601f8301049050919050565b600082821b905092915050565b6000600883026104d27fffffffffffffffffffffffffffffffffffffffffffffffffffffffffffffffff82610495565b6104dc8683610495565b95508019841693508086168417925050509392505050565b6000819050919050565b6000819050919050565b600061052361051e610519846104f4565b6104fe565b6104f4565b9050919050565b6000819050919050565b61053d83610508565b6105516105498261052a565b8484546104a2565b825550505050565b600090565b610566610559565b610571818484610534565b505050565b5b818110156105955761058a60008261055e565b600181019050610577565b5050565b601f8211156105da576105ab81610470565b6105b484610485565b810160208510156105c3578190505b6105d76105cf85610485565b830182610576565b50505b505050565b600082821c905092915050565b60006105fd600019846008026105df565b1980831691505092915050565b600061061683836105ec565b9150826002028217905092915050565b61062f82610405565b67ffffffffffffffff811115610648576106476101d6565b5b610652825461043f565b61065d828285610599565b600060209050601f831160018114610690576000841561067e578287015190505b610688858261060a565b8655506106f0565b601f19841661069e86610470565b60005b828110156106c6578489015182556001820191506020850194506020810190506106a1565b868310156106e357848901516106df601f8916826105ec565b8355505b6001600288020188555050505b505050505050565b6107018161033c565b82525050565b600060208201905061071c60008301846106f8565b92915050565b612887806107316000396000f3fe608060405234801561001057600080fd5b506004361061012c5760003560e01c80637b47ec1a116100ad578063bb7fde7111610071578063bb7fde7114610319578063c63cc56414610335578063c87b56dd14610365578063e985e9c514610395578063f2fde38b146103c55761012c565b80637b47ec1a146102895780638da5cb5b146102a557806395d89b41146102c3578063a22cb465146102e1578063b88d4fde146102fd5761012c565b806342842e0e116100f457806342842e0e146101e75780636352211e1461020357806369ba50ee1461023357806370a082311461024f578063715018a61461027f5761012c565b806301ffc9a71461013157806306fdde0314610161578063081812fc1461017f578063095ea7b3146101af57806323b872dd146101cb575b600080fd5b61014b60048036038101906101469190611c03565b6103e1565b6040516101589190611c4b565b60405180910390f35b6101696104c3565b6040516101769190611cf6565b60405180910390f35b61019960048036038101906101949190611d4e565b610555565b6040516101a69190611dbc565b60405180910390f35b6101c960048036038101906101c49190611e03565b610571565b005b6101e560048036038101906101e09190611e43565b610587565b005b61020160048036038101906101fc9190611e43565b610689565b005b61021d60048036038101906102189190611d4e565b6106a9565b60405161022a9190611dbc565b60405180910390f35b61024d60048036038101906102489190611e96565b6106bb565b005b61026960048036038101906102649190611ed6565b6107db565b6040516102769190611f12565b60405180910390f35b610287610895565b005b6102a3600480360381019061029e9190611d4e565b6108a9565b005b6102ad610a13565b6040516102ba9190611dbc565b60405180910390f35b6102cb610a3d565b6040516102d89190611cf6565b60405180910390f35b6102fb60048036038101906102f69190611f59565b610acf565b005b610317600480360381019061031291906120ce565b610ae5565b005b610333600480360381019061032e91906121f2565b610b0a565b005b61034f600480360381019061034a9190611d4e565b610bd5565b60405161035c9190611dbc565b60405180910390f35b61037f600480360381019061037a9190611d4e565b610c8b565b60405161038c9190611cf6565b60405180910390f35b6103af60048036038101906103aa9190612275565b610da7565b6040516103bc9190611c4b565b60405180910390f35b6103df60048036038101906103da9190611ed6565b610e3b565b005b60007f80ac58cd000000000000000000000000000000000000000000000000000000007bffffffffffffffffffffffffffffffffffffffffffffffffffffffff1916827bffffffffffffffffffffffffffffffffffffffffffffffffffffffff191614806104ac57507f5b5e139f000000000000000000000000000000000000000000000000000000007bffffffffffffffffffffffffffffffffffffffffffffffffffffffff1916827bffffffffffffffffffffffffffffffffffffffffffffffffffffffff1916145b806104bc57506104bb82610ec1565b5b9050919050565b6060600080546104d2906122e4565b80601f01602080910402602001604051908101604052809291908181526020018280546104fe906122e4565b801561054b5780601f106105205761010080835404028352916020019161054b565b820191906000526020600020905b81548152906001019060200180831161052e57829003601f168201915b5050505050905090565b600061056082610f2b565b5061056a82610fb3565b9050919050565b610583828261057e610ff0565b610ff8565b5050565b600073ffffffffffffffffffffffffffffffffffffffff168273ffffffffffffffffffffffffffffffffffffffff16036105f95760006040517f64a0ae920000000000000000000000000000000000000000000000000000000081526004016105f09190611dbc565b60405180910390fd5b600061060d8383610608610ff0565b61100a565b90508373ffffffffffffffffffffffffffffffffffffffff168173ffffffffffffffffffffffffffffffffffffffff1614610683578382826040517f64283d7b00000000000000000000000000000000000000000000000000000000815260040161067a93929190612315565b60405180910390fd5b50505050565b6106a483838360405180602001604052806000815250610ae5565b505050565b60006106b482610f2b565b9050919050565b3373ffffffffffffffffffffffffffffffffffffffff166106db836106a9565b73ffffffffffffffffffffffffffffffffffffffff1614610731576040517f08c379a000000000000000000000000000000000000000000000000000000000815260040161072890612398565b60405180910390fd5b806007600084815260200190815260200160002060000160006101000a81548173ffffffffffffffffffffffffffffffffffffffff021916908373ffffffffffffffffffffffffffffffffffffffff1602179055507f0e962ce7f38435c58249cd0c8ad5efaa20609556a7778dd9e1be3dd428d58ff8600760008481526020019081526020016000206001015483836040516107cf939291906123b8565b60405180910390a15050565b60008073ffffffffffffffffffffffffffffffffffffffff168273ffffffffffffffffffffffffffffffffffffffff160361084e5760006040517f89c62b640000000000000000000000000000000000000000000000000000000081526004016108459190611dbc565b60405180910390fd5b600360008373ffffffffffffffffffffffffffffffffffffffff1673ffffffffffffffffffffffffffffffffffffffff168152602001908152602001600020549050919050565b61089d611224565b6108a760006112ab565b565b6108b2816106a9565b73ffffffffffffffffffffffffffffffffffffffff163373ffffffffffffffffffffffffffffffffffffffff16148061094c57506007600082815260200190815260200160002060000160009054906101000a900473ffffffffffffffffffffffffffffffffffffffff1673ffffffffffffffffffffffffffffffffffffffff163373ffffffffffffffffffffffffffffffffffffffff16145b61098b576040517f08c379a00000000000000000000000000000000000000000000000000000000081526004016109829061243b565b60405180910390fd5b61099481611371565b60076000828152602001908152602001600020600080820160006101000a81549073ffffffffffffffffffffffffffffffffffffffff0219169055600182016000905550507f0c526103b8f47af5516191d0c89a598755bd00faa211a3cb52e4c2cc782f7fe281604051610a089190611f12565b60405180910390a150565b6000600660009054906101000a900473ffffffffffffffffffffffffffffffffffffffff16905090565b606060018054610a4c906122e4565b80601f0160208091040260200160405190810160405280929190818152602001828054610a78906122e4565b8015610ac55780601f10610a9a57610100808354040283529160200191610ac5565b820191906000526020600020905b815481529060010190602001808311610aa857829003601f168201915b5050505050905090565b610ae1610ada610ff0565b83836113f7565b5050565b610af0848484610587565b610b04610afb610ff0565b85858585611566565b50505050565b610b12611224565b610b1c8484611717565b60405180604001604052808573ffffffffffffffffffffffffffffffffffffffff168152602001838152506007600085815260200190815260200160002060008201518160000160006101000a81548173ffffffffffffffffffffffffffffffffffffffff021916908373ffffffffffffffffffffffffffffffffffffffff1602179055506020820151816001015590505080600860008581526020019081526020016000209081610bce9190612607565b5050505050565b60008073ffffffffffffffffffffffffffffffffffffffff16610bf7836106a9565b73ffffffffffffffffffffffffffffffffffffffff1603610c4d576040517f08c379a0000000000000000000000000000000000000000000000000000000008152600401610c4490612725565b60405180910390fd5b6007600083815260200190815260200160002060000160009054906101000a900473ffffffffffffffffffffffffffffffffffffffff169050919050565b6060600073ffffffffffffffffffffffffffffffffffffffff16610cae836106a9565b73ffffffffffffffffffffffffffffffffffffffff1603610d04576040517f08c379a0000000000000000000000000000000000000000000000000000000008152600401610cfb90612725565b60405180910390fd5b600860008381526020019081526020016000208054610d22906122e4565b80601f0160208091040260200160405190810160405280929190818152602001828054610d4e906122e4565b8015610d9b5780601f10610d7057610100808354040283529160200191610d9b565b820191906000526020600020905b815481529060010190602001808311610d7e57829003601f168201915b50505050509050919050565b6000600560008473ffffffffffffffffffffffffffffffffffffffff1673ffffffffffffffffffffffffffffffffffffffff16815260200190815260200160002060008373ffffffffffffffffffffffffffffffffffffffff1673ffffffffffffffffffffffffffffffffffffffff16815260200190815260200160002060009054906101000a900460ff16905092915050565b610e43611224565b600073ffffffffffffffffffffffffffffffffffffffff168173ffffffffffffffffffffffffffffffffffffffff1603610eb55760006040517f1e4fbdf7000000000000000000000000000000000000000000000000000000008152600401610eac9190611dbc565b60405180910390fd5b610ebe816112ab565b50565b60007f01ffc9a7000000000000000000000000000000000000000000000000000000007bffffffffffffffffffffffffffffffffffffffffffffffffffffffff1916827bffffffffffffffffffffffffffffffffffffffffffffffffffffffff1916149050919050565b600080610f3783611810565b9050600073ffffffffffffffffffffffffffffffffffffffff168173ffffffffffffffffffffffffffffffffffffffff1603610faa57826040517f7e273289000000000000000000000000000000000000000000000000000000008152600401610fa19190611f12565b60405180910390fd5b80915050919050565b60006004600083815260200190815260200160002060009054906101000a900473ffffffffffffffffffffffffffffffffffffffff169050919050565b600033905090565b611005838383600161184d565b505050565b60008061101684611810565b9050600073ffffffffffffffffffffffffffffffffffffffff168373ffffffffffffffffffffffffffffffffffffffff161461105857611057818486611a12565b5b600073ffffffffffffffffffffffffffffffffffffffff168173ffffffffffffffffffffffffffffffffffffffff16146110e95761109a60008560008061184d565b6001600360008373ffffffffffffffffffffffffffffffffffffffff1673ffffffffffffffffffffffffffffffffffffffff168152602001908152602001600020600082825403925050819055505b600073ffffffffffffffffffffffffffffffffffffffff168573ffffffffffffffffffffffffffffffffffffffff161461116c576001600360008773ffffffffffffffffffffffffffffffffffffffff1673ffffffffffffffffffffffffffffffffffffffff168152602001908152602001600020600082825401925050819055505b846002600086815260200190815260200160002060006101000a81548173ffffffffffffffffffffffffffffffffffffffff021916908373ffffffffffffffffffffffffffffffffffffffff160217905550838573ffffffffffffffffffffffffffffffffffffffff168273ffffffffffffffffffffffffffffffffffffffff167fddf252ad1be2c89b69c2b068fc378daa952ba7f163c4a11628f55a4df523b3ef60405160405180910390a4809150509392505050565b61122c610ff0565b73ffffffffffffffffffffffffffffffffffffffff1661124a610a13565b73ffffffffffffffffffffffffffffffffffffffff16146112a95761126d610ff0565b6040517f118cdaa70000000000000000000000000000000000000000000000000000000081526004016112a09190611dbc565b60405180910390fd5b565b6000600660009054906101000a900473ffffffffffffffffffffffffffffffffffffffff16905081600660006101000a81548173ffffffffffffffffffffffffffffffffffffffff021916908373ffffffffffffffffffffffffffffffffffffffff1602179055508173ffffffffffffffffffffffffffffffffffffffff168173ffffffffffffffffffffffffffffffffffffffff167f8be0079c531659141344cd1fd0a4f28419497f9722a3daafe3b4186f6b6457e060405160405180910390a35050565b6000611380600083600061100a565b9050600073ffffffffffffffffffffffffffffffffffffffff168173ffffffffffffffffffffffffffffffffffffffff16036113f357816040517f7e2732890000000000000000000000000000000000000000000000000000000081526004016113ea9190611f12565b60405180910390fd5b5050565b600073ffffffffffffffffffffffffffffffffffffffff168273ffffffffffffffffffffffffffffffffffffffff160361146857816040517f5b08ba1800000000000000000000000000000000000000000000000000000000815260040161145f9190611dbc565b60405180910390fd5b80600560008573ffffffffffffffffffffffffffffffffffffffff1673ffffffffffffffffffffffffffffffffffffffff16815260200190815260200160002060008473ffffffffffffffffffffffffffffffffffffffff1673ffffffffffffffffffffffffffffffffffffffff16815260200190815260200160002060006101000a81548160ff0219169083151502179055508173ffffffffffffffffffffffffffffffffffffffff168373ffffffffffffffffffffffffffffffffffffffff167f17307eab39ab6107e8899845ad3d59bd9653f200f220920489ca2b5937696c31836040516115599190611c4b565b60405180910390a3505050565b60008373ffffffffffffffffffffffffffffffffffffffff163b1115611710578273ffffffffffffffffffffffffffffffffffffffff1663150b7a02868685856040518563ffffffff1660e01b81526004016115c5949392919061279a565b6020604051808303816000875af192505050801561160157506040513d601f19601f820116820180604052508101906115fe91906127fb565b60015b611685573d8060008114611631576040519150601f19603f3d011682016040523d82523d6000602084013e611636565b606091505b50600081510361167d57836040517f64a0ae920000000000000000000000000000000000000000000000000000000081526004016116749190611dbc565b60405180910390fd5b805181602001fd5b63150b7a0260e01b7bffffffffffffffffffffffffffffffffffffffffffffffffffffffff1916817bffffffffffffffffffffffffffffffffffffffffffffffffffffffff19161461170e57836040517f64a0ae920000000000000000000000000000000000000000000000000000000081526004016117059190611dbc565b60405180910390fd5b505b5050505050565b600073ffffffffffffffffffffffffffffffffffffffff168273ffffffffffffffffffffffffffffffffffffffff16036117895760006040517f64a0ae920000000000000000000000000000000000000000000000000000000081526004016117809190611dbc565b60405180910390fd5b60006117978383600061100a565b9050600073ffffffffffffffffffffffffffffffffffffffff168173ffffffffffffffffffffffffffffffffffffffff161461180b5760006040517f73c6ac6e0000000000000000000000000000000000000000000000000000000081526004016118029190611dbc565b60405180910390fd5b505050565b60006002600083815260200190815260200160002060009054906101000a900473ffffffffffffffffffffffffffffffffffffffff169050919050565b80806118865750600073ffffffffffffffffffffffffffffffffffffffff168273ffffffffffffffffffffffffffffffffffffffff1614155b156119ba57600061189684610f2b565b9050600073ffffffffffffffffffffffffffffffffffffffff168373ffffffffffffffffffffffffffffffffffffffff161415801561190157508273ffffffffffffffffffffffffffffffffffffffff168173ffffffffffffffffffffffffffffffffffffffff1614155b801561191457506119128184610da7565b155b1561195657826040517fa9fbf51f00000000000000000000000000000000000000000000000000000000815260040161194d9190611dbc565b60405180910390fd5b81156119b857838573ffffffffffffffffffffffffffffffffffffffff168273ffffffffffffffffffffffffffffffffffffffff167f8c5be1e5ebec7d5bd14f71427d1e84f3dd0314c0f7b2291e5b200ac8c7c3b92560405160405180910390a45b505b836004600085815260200190815260200160002060006101000a81548173ffffffffffffffffffffffffffffffffffffffff021916908373ffffffffffffffffffffffffffffffffffffffff16021790555050505050565b611a1d838383611ad6565b611ad157600073ffffffffffffffffffffffffffffffffffffffff168373ffffffffffffffffffffffffffffffffffffffff1603611a9257806040517f7e273289000000000000000000000000000000000000000000000000000000008152600401611a899190611f12565b60405180910390fd5b81816040517f177e802f000000000000000000000000000000000000000000000000000000008152600401611ac8929190612828565b60405180910390fd5b505050565b60008073ffffffffffffffffffffffffffffffffffffffff168373ffffffffffffffffffffffffffffffffffffffff1614158015611b8e57508273ffffffffffffffffffffffffffffffffffffffff168473ffffffffffffffffffffffffffffffffffffffff161480611b4f5750611b4e8484610da7565b5b80611b8d57508273ffffffffffffffffffffffffffffffffffffffff16611b7583610fb3565b73ffffffffffffffffffffffffffffffffffffffff16145b5b90509392505050565b6000604051905090565b600080fd5b600080fd5b60007fffffffff0000000000000000000000000000000000000000000000000000000082169050919050565b611be081611bab565b8114611beb57600080fd5b50565b600081359050611bfd81611bd7565b92915050565b600060208284031215611c1957611c18611ba1565b5b6000611c2784828501611bee565b91505092915050565b60008115159050919050565b611c4581611c30565b82525050565b6000602082019050611c606000830184611c3c565b92915050565b600081519050919050565b600082825260208201905092915050565b60005b83811015611ca0578082015181840152602081019050611c85565b60008484015250505050565b6000601f19601f8301169050919050565b6000611cc882611c66565b611cd28185611c71565b9350611ce2818560208601611c82565b611ceb81611cac565b840191505092915050565b60006020820190508181036000830152611d108184611cbd565b905092915050565b6000819050919050565b611d2b81611d18565b8114611d3657600080fd5b50565b600081359050611d4881611d22565b92915050565b600060208284031215611d6457611d63611ba1565b5b6000611d7284828501611d39565b91505092915050565b600073ffffffffffffffffffffffffffffffffffffffff82169050919050565b6000611da682611d7b565b9050919050565b611db681611d9b565b82525050565b6000602082019050611dd16000830184611dad565b92915050565b611de081611d9b565b8114611deb57600080fd5b50565b600081359050611dfd81611dd7565b92915050565b60008060408385031215611e1a57611e19611ba1565b5b6000611e2885828601611dee565b9250506020611e3985828601611d39565b9150509250929050565b600080600060608486031215611e5c57611e5b611ba1565b5b6000611e6a86828701611dee565b9350506020611e7b86828701611dee565b9250506040611e8c86828701611d39565b9150509250925092565b60008060408385031215611ead57611eac611ba1565b5b6000611ebb85828601611d39565b9250506020611ecc85828601611dee565b9150509250929050565b600060208284031215611eec57611eeb611ba1565b5b6000611efa84828501611dee565b91505092915050565b611f0c81611d18565b82525050565b6000602082019050611f276000830184611f03565b92915050565b611f3681611c30565b8114611f4157600080fd5b50565b600081359050611f5381611f2d565b92915050565b60008060408385031215611f7057611f6f611ba1565b5b6000611f7e85828601611dee565b9250506020611f8f85828601611f44565b9150509250929050565b600080fd5b600080fd5b7f4e487b7100000000000000000000000000000000000000000000000000000000600052604160045260246000fd5b611fdb82611cac565b810181811067ffffffffffffffff82111715611ffa57611ff9611fa3565b5b80604052505050565b600061200d611b97565b90506120198282611fd2565b919050565b600067ffffffffffffffff82111561203957612038611fa3565b5b61204282611cac565b9050602081019050919050565b82818337600083830152505050565b600061207161206c8461201e565b612003565b90508281526020810184848401111561208d5761208c611f9e565b5b61209884828561204f565b509392505050565b600082601f8301126120b5576120b4611f99565b5b81356120c584826020860161205e565b91505092915050565b600080600080608085870312156120e8576120e7611ba1565b5b60006120f687828801611dee565b945050602061210787828801611dee565b935050604061211887828801611d39565b925050606085013567ffffffffffffffff81111561213957612138611ba6565b5b612145878288016120a0565b91505092959194509250565b600067ffffffffffffffff82111561216c5761216b611fa3565b5b61217582611cac565b9050602081019050919050565b600061219561219084612151565b612003565b9050828152602081018484840111156121b1576121b0611f9e565b5b6121bc84828561204f565b509392505050565b600082601f8301126121d9576121d8611f99565b5b81356121e9848260208601612182565b91505092915050565b6000806000806080858703121561220c5761220b611ba1565b5b600061221a87828801611dee565b945050602061222b87828801611d39565b935050604061223c87828801611d39565b925050606085013567ffffffffffffffff81111561225d5761225c611ba6565b5b612269878288016121c4565b91505092959194509250565b6000806040838503121561228c5761228b611ba1565b5b600061229a85828601611dee565b92505060206122ab85828601611dee565b9150509250929050565b7f4e487b7100000000000000000000000000000000000000000000000000000000600052602260045260246000fd5b600060028204905060018216806122fc57607f821691505b60208210810361230f5761230e6122b5565b5b50919050565b600060608201905061232a6000830186611dad565b6123376020830185611f03565b6123446040830184611dad565b949350505050565b7f43616c6c6572206973206e6f7420746865206f776e6572000000000000000000600082015250565b6000612382601783611c71565b915061238d8261234c565b602082019050919050565b600060208201905081810360008301526123b181612375565b9050919050565b60006060820190506123cd6000830186611f03565b6123da6020830185611f03565b6123e76040830184611dad565b949350505050565b7f43616c6c6572206973206e6f7420617574686f72697a65640000000000000000600082015250565b6000612425601883611c71565b9150612430826123ef565b602082019050919050565b6000602082019050818103600083015261245481612418565b9050919050565b60008190508160005260206000209050919050565b60006020601f8301049050919050565b600082821b905092915050565b6000600883026124bd7fffffffffffffffffffffffffffffffffffffffffffffffffffffffffffffffff82612480565b6124c78683612480565b95508019841693508086168417925050509392505050565b6000819050919050565b60006125046124ff6124fa84611d18565b6124df565b611d18565b9050919050565b6000819050919050565b61251e836124e9565b61253261252a8261250b565b84845461248d565b825550505050565b600090565b61254761253a565b612552818484612515565b505050565b5b818110156125765761256b60008261253f565b600181019050612558565b5050565b601f8211156125bb5761258c8161245b565b61259584612470565b810160208510156125a4578190505b6125b86125b085612470565b830182612557565b50505b505050565b600082821c905092915050565b60006125de600019846008026125c0565b1980831691505092915050565b60006125f783836125cd565b9150826002028217905092915050565b61261082611c66565b67ffffffffffffffff81111561262957612628611fa3565b5b61263382546122e4565b61263e82828561257a565b600060209050601f831160018114612671576000841561265f578287015190505b61266985826125eb565b8655506126d1565b601f19841661267f8661245b565b60005b828110156126a757848901518255600182019150602085019450602081019050612682565b868310156126c457848901516126c0601f8916826125cd565b8355505b6001600288020188555050505b505050505050565b7f546f6b656e20646f6573206e6f74206578697374000000000000000000000000600082015250565b600061270f601483611c71565b915061271a826126d9565b602082019050919050565b6000602082019050818103600083015261273e81612702565b9050919050565b600081519050919050565b600082825260208201905092915050565b600061276c82612745565b6127768185612750565b9350612786818560208601611c82565b61278f81611cac565b840191505092915050565b60006080820190506127af6000830187611dad565b6127bc6020830186611dad565b6127c96040830185611f03565b81810360608301526127db8184612761565b905095945050505050565b6000815190506127f581611bd7565b92915050565b60006020828403121561281157612810611ba1565b5b600061281f848285016127e6565b91505092915050565b600060408201905061283d6000830185611dad565b61284a6020830184611f03565b939250505056fea264697066735822122057449ca276671730a30369143e759477eceab5f722117669ab7fcb08d6bf963964736f6c634300081c0033",
  "linkReferences": {},
  "deployedLinkReferences": {}
}